:030000000201FFFB
:0C01FF00787FE4F6D8FD75810C02000E3C
:1000E0004E6869657420646F3A20002A43004461B9
:1000F0006E6720646F206E6869657420646F2E2EB1
:0E0100002E0063686F20636875742020200055
:10013100EF1392A0EFA2E192A1A2E292A2D2A3D2E6
:10014100A4C2A3C2A420A5FD30A5FDD2A6AFB0C212
:01015100A607
:01015200228A
:1001DB00E4FDFCC3ED9FEC9E50070DBD00010C80B0
:0101EB00F221
:0101EC0022F0
:10015300E4FDFCC3ED9FEC9E5015E4FBFA0BBB00E2
:0F016300010AEB647B4A70F50DBD00010C80E4CE
:01017200226A
:0301C8001201938E
:1001CB00D2827F037E001201DBC2827F320201DB0F
:10019300EF139284EFC313139285EF1313543F139A
:0C01A3009286EF131313541F139287224F
:1001ED00AB07EBC4540FFF1201C8AF03120193020A
:0201FD0001CB34
:0C020B007F011201ED7F0A7E000201DB82
:10006300E4FF1201937F147E00120153C280C28108
:100073007F031201C87F057E001201531201CB7F5B
:10008300647E001201DB1201CB7F02120193120185
:10009300CB7F281201ED7F0C1201ED7F061201EDDB
:0500A3007F010201EDE8
:10017300ED7006EF2480FA8004EF24C0FA7FE87E56
:10018300031201DBAF021201ED7F327E000201DBBD
:04021700842430FF0C
:08021B00D2801201EDC2802225
:10010E008B098A0A890BAB09AA0AA90B1201AFFF48
:10011E00601012021B7401250BF50BE4350AF50A6B
:03012E0080E42248
:1000A8008F087BFF7A0079E012010EE50875F0648D
:1000B800120217E50875F06484E5F075F00A12027B
:1000C80017E50875F00A84E5F02430FF12021B7B5F
:0800D800FF7A0079EB02010E32
:03000B00020003ED
:03000300B2A7326F
:10000E00758902758AEC758CECD28CD2A9D2AF129E
:10001E0000637FC87E001201537BFF7A0079EE12D7
:10002E00010E7FE87E0312015312020B7D01E4FFE5
:10003E001201737BFF7A01790212010EE4FDFF12A9
:10004E000173E4FF1201318F0C1200A87FF47E01C0
:05005E0012015380E7D0
:1001AF00BB010689828A83E0225002E722BBFE024E
:0901BF00E32289828A83E4932281
:00000001FF
